:020000040800F2
:1000000000000824713A0108894A01088D4A010854
:10001000914A0108954A0108994A01080000000028
:100020000000000000000000000000009D4A0108E0
:10003000A14A010800000000A54A0108A94A0108D8
:10004000C13A0108C13A0108C13A0108C13A0108A0
:10005000C13A0108C13A0108C13A0108C13A010890
:10006000C13A0108C13A0108C13A0108C13A010880
:10007000C13A0108C13A0108C13A0108C13A010870
:10008000C13A0108C13A0108C13A0108C13A010860
:10009000C13A0108C13A0108C13A0108C13A010850
:1000A000C13A0108C13A0108C13A0108C13A010840
:1000B000C13A0108C13A0108C13A0108C13A010830
:1000C000C13A0108C13A0108C13A0108C13A010820
:1000D000C13A0108C13A0108C13A0108C13A010810
:1000E000C13A0108C13A010800000000C13A010804
:1000F000C13A0108C13A0108C13A0108C13A0108F0
:10010000C13A0108C13A0108C13A0108C13A0108DF
:10011000C13A0108C13A0108C13A0108C13A0108CF
:10012000C13A0108C13A0108C13A0108AD4A0108C3
:10013000C13A0108C13A0108C13A0108C13A0108AF
:10014000C13A0108C13A01080000000000000000A7
:10015000C13A0108C13A0108C13A0108C13A01088F
:10016000C13A0108C13A0108C13A0108C13A01087F
:10017000C13A0108C13A0108B54A0108000000006F
:10018000C13A0108C13A0108C13A0108C13A01085F
:10019000C13A0108C13A0108C13A0108C13A01084F
:1001A000E14A0108C13A0108D54A0108C13A0108EB
:1001B000C13A0108C13A0108C13A0108C13A01082F
:1001C000C13A0108C13A0108C13A0108C13A01081F
:1001D000C13A0108C13A0108C13A0108C13A01080F
:1001E000C13A0108C13A0108C13A0108C13A0108FF
:1001F000C13A0108C13A0108C13A0108C13A0108EF
:10020000C13A0108C13A0108C13A0108C13A0108DE
:10021000C13A0108C13A0108C13A0108C13A0108CE
:10022000C13A0108C13A0108BD4A0108C94A01089A
:10023000C13A0108C13A0108C13A0108C13A0108AE
:10024000C13A0108C13A0108C13A0108C13A01089E
:10025000C13A0108C13A0108C13A0108C13A01088E
:10026000C13A0108C13A0108C13A0108C13A01087E
:10027000C13A0108C13A0108C13A0108C13A01086E
:10028000C13A0108C13A0108C13A01080000000062
:08029000C13A0108C13A01085E
:020000040801F1
:1000000010B5054C237833B9044B13B10448AFF352
:1000100000800123237010BDC011002400000000E7
:100020007458030808B5034B1BB103490348AFF3E9
:10003000008008BD00000000C411002474580308AB
:1000400001F0FF01102A2BDB10F0070F08D010F889
:10005000013B013A8B422DD010F0070F42B3F6D18D
:10006000F0B441EA012141EA014122F007047FF0A6
:1000700000070023F0E80256083C85EA010586EAFD
:10008000010685FA47F5A3FA87F586FA47F6A5FA39
:1000900087F68EB9EED1F0BC01F0FF0102F0070245
:1000A00032B110F8013B013A83EA010313B1F8D1F0
:1000B0000020704701387047002D06BF35460338D1
:1000C000073815F0010F07D1013015F4807F02BF0A
:1000D000013015F4C03F0130F0BC0138704700BF5B
:1000E000034613F8012B002AFBD1181A0138704778
:1000F000016AD0E90A32003918BF0121003B18BF5C
:100100000123890630B4DB06046932B1026B22B1E7
:10011000426B003A18BF01221207456AB5F1000C84
:1001200018BF4FF0010C43EA8C7323430B43134376
:1001300030BC0361704700BF30B410F0070584463F
:1001400010D10B4C0FCCACE80F000FCCACE80F007B
:100150000FCCACE80F0094E803008CE803002846BD
:1001600030BC7047034D00234361284630BC7047C4
:10017000D05803080200030030B504461649174B57
:1001800085B0406A626BA569C1E90200C3E9022239
:1001900065B1134B8D220121E0699B699B68CDF805
:1001A0000CD00093CDE9012101AAA8470D4811F018
:1001B0006BFEA3696BB10C4A01218D25E069926940
:1001C000CDE90151916801AACDF80CD0009102212E
:1001D000984705B030BD00BF580D0024680D0024BD
:1001E0005C0B002438040024200B002430B5036A83
:1001F00085B0164D044603F58041154AC5E9023322
:100200008369C2E9021163B1124A2820012192696F
:100210009268CDF80CD0009201AACDE90101E06905
:1002200098470D4812F0ACF8A3696BB10B4A012155
:100230002825E0699269CDE90151916801AACDF8BC
:100240000CD000910221984705B030BD380D002434
:10025000480D0024E40A0024C8030024A80A00244E
:1002600030B5036A85B0164D044603F5C861154ADA
:10027000C5E902338369C2E9021163B1124A3E2023
:10028000012192699268CDF80CD0009201AACDE9C3
:100290000101E06998470D4811F0B0FCA3696BB10A
:1002A0000B4A01213E25E0699269CDE9015191682F
:1002B00001AACDF80CD000910221984705B030BDBD
:1002C000180D0024280D00246C0A0024700300245B
:1002D000300A002430B5036A04461B4D87B003F58D
:1002E000A0701A491A4AC5E9023303F51873A569C3
:1002F000C1E90200C2E902338DB1164A4021164B12
:1003000092699B69926803910221019203AA9B68FA
:10031000049101A9E069059101210293A8470F48C2
:1003200012F00CF9A3696BB10D4A01214025E06977
:10033000926901ACCDE90351916803AA059401913A
:100340000221984707B030BDF80C0024080D0024A6
:10035000E80C0024F40900247C0900241003002484
:10036000B809002430B5036A0446174985B003F57F
:100370001870164A03F56073A569C1E90200C2E965
:10038000023365B1124B51220121E0699B699B68E0
:10039000CDF80CD00093CDE9012101AAA8470D4862
:1003A00012F0B6FAA3696BB10B4A01215125E0693D
:1003B0009269CDE90151916801AACDF80CD0009164
:1003C0000221984705B030BDE80C0024D80C002469
:1003D000B8090024B002002440090024036A1D4922
:1003E0001D4A70B51D4D0446866903F5485086B018
:1003F000C5E9020003F5607003F50063C1E902007E
:10040000C2E902338EB1164A5221164B92699B699A
:10041000926803910221019203AA9B68049101A9A9
:10042000E069059101210293B0470F4812F086F868
:10043000A3696BB10D4A01215225E069926901ACB3
:10044000CDE90351916803AA0594019102219847CF
:1004500006B070BDD80C0024B80C0024C80C0024D1
:10046000040900244009002450020024C808002484
:1004700030B5036A0446174985B003F50060164A93
:1004800003F54863A569C1E90200C2E9023365B119
:10049000124B63220121E0699B699B68CDF80CD067
:1004A0000093CDE9012101AAA8470D4812F030FAC6
:1004B000A3696BB10B4A01216325E0699269CDE91B
:1004C0000151916801AACDF80CD000910221984702
:1004D00005B030BDB80C0024A80C0024C8080024C6
:1004E000F00100248C080024036A1D491D4A70B5E0
:1004F0001D4D0446866903F5F45086B0C5E9020037
:1005000003F5486003F54253C1E90200C2E9023332
:100510008EB1164A6421164B92699B6992680391C9
:100520000221019203AA9B68049101A9E069059147
:1005300001210293B0470F4812F000F8A3696BB194
:100540000D4A01216425E069926901ACCDE90351AE
:10055000916803AA059401910221984706B070BDE5
:10056000A80C0024880C0024980C002450080024B7
:100570008C080024900100241408002430B5036A7C
:100580000446174985B003F54250164A03F58543E2
:10059000A569C1E90200C2E9023365B1124B7522B7
:1005A0000121E0699B699B68CDF80CD00093CDE9EF
:1005B000012101AAA8470D4812F0AAF9A3696BB15D
:1005C0000B4A01217525E0699269CDE901519168D5
:1005D00001AACDF80CD000910221984705B030BD9A
:1005E000880C0024780C0024140800243001002416
:1005F000D8070024036A48F680221D491A4419448A
:1006000003F5854370B51B4E86B01B4D0446C6E905
:100610000211C5E9023319498369C1E902228BB18C
:1006200017497620174A89699269896803900220E0
:100630000191049001A8916803AA059002910121FB
:10064000E0699847104811F079FFA3696BB10F4A30
:1006500001217625E069926901ACCDE903519168E9
:1006600003AA059401910221984706B070BD00BF0E
:1006700044290100680C0024780C0024580C002444
:100680009C070024D8070024D00000246007002421
:10069000036A41F6F8522B491A4430B5C1E90222E7
:1006A00003F5A071284A294D89B00446C2E9021118
:1006B00003F1B401264AC2E9021103F59071254AFB
:1006C000C2E9021142F6D86223491A4403F5AF6326
:1006D000C5E9023383698A60CA60EBB11F487C2593
:1006E0001F498069896980681E4A039089689269F8
:1006F00004911D49906889691C4A059003A889687E
:100700009269069191686A46029007910521E06915
:100710000191012100959847154811F0B5FBA36997
:100720006BB1144A01217C25E0699269CDE903513E
:10073000916803AACDF814D000910221984709B01E
:1007400030BD00BF180C0024280C0024080C002425
:10075000380C0024480C0024F80B0024AC060024BC
:10076000E8060024F805002434060024700600245E
:10077000680000242407002430B5044648F25831AC
:1007800042F29832284D236A89B0284819441A4405
:10079000C5E90211C0E9022203F52A71244A25485D
:1007A000A569C2E9021103F59671234AC2E9021153
:1007B00042F6D86221491A44C0E90233C1E9022253
:1007C000EDB11F4984201F4A8969926989681E4BCF
:1007D000039192689B6904921C4A996892691C4B28
:1007E000059103A992689B6906926A469B680090EE
:1007F0000793052302910121E0690193A847154859
:1008000011F042FBA3696BB1134A01218425E06911
:100810009269CDE90351916803AACDF814D00091F3
:100820000221984709B030BDA80B0024B80B002462
:10083000C80B0024D80B0024E80B0024980B0024DC
:10084000440500248005002490040024CC040024E6
:100850000805002400000024BC050024002838D02E
:100860002DE9F04710F0070592B0044625D11E4B44
:1008700002689A4210D10369590122D51A0115D58F
:10088000DF0029D55E0039D4406910B9174B1846EE
:10089000636112B0BDE8F08740690028F9D14FF4D8
:1008A00040331846636112B0BDE8F0874069002804
:1008B000EFD10F4B18466361EBE70E4812B0BDE86D
:1008C000F08740690028E4D14FF480231846636123
:1008D000DFE74FF44030704740690028D9D1064B1C
:1008E00018466361D5E700BF0001C0B140000400B5
:1008F000100004000200030020000400FFF73CFC8D
:10090000B54E226AA369A76A164443B10EAA012113
:10091000E06911920FAA0F950E97109198474FF02A
:10092000FF32B7EE000A7F233846009231464FF47B
:10093000D83212F01DF8A569002D02F0B5870EAB74
:10094000002201270E9611930221E069CDE90F27BD
:100950000FAAA847266AA04D0EABD4F818803544DC
:10096000D4F82490B8F1000F07D00FAA3946E069F7
:1009700011930E95CDE90F77C0474EF660724FF296
:10098000380306F590314A444B44039300230B91FE
:100990004FF4237107932846019360236FF07F057E
:1009A0000227DFED960A9FED8D0A08960297CDE9A2
:1009B00009318B4BC02106934FF0FF33CDE904354D
:1009C00003230093082313F06FF8D4F81880B8F1CC
:1009D000000F02F066870EAB01250E963946119383
:1009E0000FAAE069CDE90F55C047D4F81880266AF0
:1009F0000EABB8F1000F07D00FAA2946E0690F9798
:100A0000119310950E96C0474FF44472754F3046BF
:100A1000082337440126CDE903224FF440723946BA
:100A2000CDE901626022CDE9053300926E4A13F0F0
:100A3000CDFBA569002D02F025870EAB4FF0020813
:100A40000E970FAA11934146E0691096CDF83C80AD
:100A5000A847644D276A0EABD4F818903D44D4F8EB
:100A600024A0B9F1000F08D00FAA3146E069CDF8F3
:100A70003C80119310960E95C8474FF258024FF2E2
:100A8000A003DFF86C8152445344B84400926022C2
:100A9000002140F2291ADFED590A28460C97012758
:100AA0000393B0EE600A0823CDF81C80CDE908223C
:100AB0006FF07F02CDE90A1ACDE904224B49622288
:100AC00006911146CDE9017711F080FFA669002E4D
:100AD00002F0C9860EAB0221CDF838800FAA11931F
:100AE000E06910970F91B047414D266A0EABD4F8DC
:100AF00018803544D4F82490B8F1000F08D0119331
:100B000003230FAA3946E06910970E950F93C0474B
:100B10004FF2C0014FF2401347F6705749444B441F
:100B2000374404931023DFED350A28460393082346
:100B300001256022B0EE600A0C9609970A9500958F
:100B4000CDE901316FF07F031146CDE90533C023B4
:100B50000B9300230893274B07932B4612F0C6FCF8
:100B6000A369002B02F0768603220E970EAF0221B6
:100B70000F920FAAE06947F67056109511979847A3
:100B8000D4F82080A369464443B104200FAA294623
:100B900011970F901095E0690E96984747F26017ED
:100BA000474400231022304601260593394603931B
:100BB0004FF4C06306924FF4C26202936023049222
:100BC0000D4ACDE90036082313F000FBA569002D7E
:100BD00002F0308614E000BF8C2201008180003CCE
:100BE000E898030870A60100E4980308C498030875
:100BF00070A301008498030880980308C1C0C03C1A
:100C00000EAB04220E9702210F920FAA1193E069F6
:100C10001096A847276A47F26015D4F81880D4F8D0
:100C200024900EAB3D44B8F1000F08D0119305237A
:100C30000FAA3146E06910960E950F93C0474FF208
:100C400080124FF210234A444B4446F66069B9447F
:100C500000923022002140F251285FED180A02264E
:100C600003932846B0EE600A10230C97CDF81C9031
:100C7000CDE908226FF07F02CDE90A18CDE9042200
:100C8000AF49612206911146CDE9016611F09EFE41
:100C9000D4F81880B8F1000F02F0BC850EAB052225
:100CA00001273146CDF8389046F660650F920FAABD
:100CB000E069CDE91073C047266AD4F818800EABFE
:100CC0003544D4F82490B8F1000F08D011930623CE
:100CD0000FAA3946E06910970E950F93C0474FF25F
:100CE00050214FF250434FF6606749444B4437441C
:100CF00004932023DFED980A28460393102301254F
:100D00003022B0EE600A0C9609970A950095CDE95D
:100D100001316FF07F031146CDE905334FF4C07305
:100D20000B9300230893874B07932B4612F0DEFBAF
:100D3000A369002B02F0658506220E970EAF0221F3
:100D40000F920FAAE0694FF66066109511979847C9
:100D5000D4F82080A369464443B107200FAA29464E
:100D600011970F901095E0690E9698474EF2E05754
:100D700047444FF4C8633046012620223946CDE966
:100D800003334FF4C063CDE901633023CDE905227D
:100D9000009308236C4A13F019FAA569002D02F09C
:100DA00020850EAB4FF007090E97022111930FAA71
:100DB000E0691096CDF83C90A8474EF2E055276ABE
:100DC0000EABD4F818803D44D4F824A0B8F1000F3D
:100DD00008D00FAA3146E069CDF83C9011931096E7
:100DE0000E95C0474FF2D0424FF2F0534DF6E076E9
:100DF000524453443E4400923022002140F2A14C20
:100E0000DFED550A28460C9701270393B0EE600AE0
:100E100020230796CDE908226FF07F02CDE90A1C56
:100E2000CDE904224949322206911146CDE90177E4
:100E300011F0CCFDA569002D02F0C3840EAB072292
:100E40000E9602210F920FAA1193E0691097A847FE
:100E5000266A4DF6E075D4F81880D4F824900EABCD
:100E60003544B8F1000F08D0119308230FAA394672
:100E7000E06910970E950F93C0474FF270624FF6DE
:100E800070234DF6E0174A444B4437440493202323
:100E9000DFED310A284601930125B0EE600A0C9679
:100EA00009970A950095CDE902236FF07F03302260
:100EB000CDE905334FF4E07311460B9300230893FB
:100EC000234B07932B4612F011FBA369002B02F072
:100ED0006F8408220E970EAF02210F920FAAE069CD
:100EE0004DF6E016109511979847D4F82080A36925
:100EF000464443B109200FAA294611970F90109537
:100F0000E0690E9698474CF6C057474400232022CC
:100F1000304601260593394603934FF4C063069289
:100F20004FF4C4620293302304920A4ACDE900369A
:100F3000082313F04BF9A569002D02F02A840DE077
:100F400040980308C0970308BC9703083C97030820
:100F5000BC960308B8960308C1C0C03C0EAB09227A
:100F60000E9702210F920FAA1193E0691096A847DD
:100F7000276A4CF6C055D4F81880D4F824900EABEC
:100F80003D44B8F1000F08D011930A230FAA31464F
:100F9000E06910960E950F93C0474FF6F0224FF67A
:100FA000104307F2A4484A444B44009218222846B2
:100FB000002140F2A1455FED180A02260393B0EE2E
:100FC000600A20230C97CDF81C80CDE908226FF031
:100FD0007F02CDE90A15CDE90422B14931220691FB
:100FE0001146CDE9016611F0F1FCA369002B02F076
:100FF000C2830A2231460EAF0126CDF838800F9207
:101000000FAAE069CDE910679847256AA369D4F86B
:10101000249005F2A4484BB10B200FAA314611973A
:101020000F901096E069CDF8388098474FF69041C0
:101030009C4B44F6A44649444B442E44049340231D
:10104000DFED990A1822039320230C950125B0EEB9
:10105000600A404609960A950095CDE901316FF086
:101060007F031146CDE905334FF440730B93002302
:1010700008938E4B07932B4612F038FAA369002B86
:1010800002F070830B220EAF0E9602210F920FAA70
:10109000E06944F6A446109511979847D4F820804B
:1010A000A369464443B10C200FAA294611970F901B
:1010B0001095E0690E9698474DF6A44747444FF4C3
:1010C000D0633046012640223946CDE903334FF440
:1010D000C063CDE901631823CDE9052200930823FD
:1010E000734A13F073F8A569002D02F02E830EAB3E
:1010F0004FF00C090E97022111930FAAE069109688
:10110000CDF83C90A8474DF6A445276A0EABD4F81D
:1011100018803D44D4F824A0B8F1000F08D00FAADD
:101120003146E069CDF83C90119310960E95C0477A
:10113000604A07F64418604B524453440092182208
:10114000002140F64119DFED580A01260393284695
:101150004023B0EE600A0C97CDF81C80CDE9082240
:101160006FF07F02CDE90A19CDE9042253491A2212
:1011700006911146CDE9016611F028FCA369002B08
:1011800002F0D6820C220EAFCDF8388002210F92E9
:101190000FAAE069109611979847256AA369D4F8B9
:1011A000249005F644184BB10D200FAA3146119733
:1011B0000F901096E069CDF838809847404A49F67C
:1011C0004416404B4A442E444B4404934023DFEDE5
:1011D000360A404601930C950125B0EE600A099647
:1011E0000A950095CDE902236FF07F031822CDE91F
:1011F00005334FF4607311460B9300230893324B71
:1012000007932B4612F072F9A369002B02F0888233
:101210000D220EAF0E9602210F920FAAE06949F639
:101220004416109511979847D4F82080A369464436
:1012300043B10F200FAA294611970F901095E0692E
:101240000E969847214F47440023402230460126FE
:101250000593394603934FF4C06306924FF4C86276
:101260000293182304921A4ACDE90036082312F09B
:10127000ADFFA569002D02F047820EAB0F220E973D
:1012800002210F920FAA1193E0691096A847276ACE
:101290000E4D0EABD4F818803D44D4F8249019E0DC
:1012A0003896030890040100C1C0C03C389503087B
:1012B0003495030890050100D00701003494030819
:1012C000D0080100D018010034930308442901001C
:1012D00030930308B8F1000F08D0119310230FAA20
:1012E0003146E06910960E950F93C047B44A07F651
:1012F0004418B44B4A444B4400920C22002140F65F
:10130000411CDFEDB10A0226039328464023B0EECC
:10131000600A0C97CDF81C80CDE908226FF07F029F
:10132000CDE90A1CCDE90422A849192206911146EB
:10133000CDE9016611F04AFBA369002B02F0688138
:10134000102231460EAF0126CDF838800F920FAA39
:10135000E069CDE910679847256AA369D4F824901D
:1013600005F644184BB111200FAA314611970F9082
:101370001096E069CDF838809847954942F6445672
:10138000944B49442E444B4404938023DFED8E0A52
:101390000C22039340230C950125B0EE600A4046D1
:1013A00009960A950095CDE901316FF07F0311464A
:1013B000CDE905334FF4C0630B9300230893864BAC
:1013C00007932B4612F092F8A369002B02F01881C4
:1013D00011220EAF0E9602210F920FAAE06942F67B
:1013E0004456109511979847D4F82080A369464435
:1013F00043B112200FAA294611970F901095E0696A
:101400000E969847754F47444FF4E06330460126E7
:1014100080223946CDE903334FF4C063CDE901633F
:101420000C23CDE90522009308236D4A12F0CEFE6D
:10143000A569002D02F0D7800EAB4FF012090E9770
:10144000022111930FAAE0691096CDF83C90A847AD
:10145000624D276A0EABD4F818803D44D4F824A01E
:10146000B8F1000F08D00FAA3146E069CDF83C90E2
:10147000119310960E95C0475A4A41F284265A4B52
:1014800052443E44534400920C222846002141F22B
:101490008125DFED4D0A0C9701270393B0EE600A1A
:1014A00080230796CDE908226FF07F02CDE90A1567
:1014B000CDE904224D490E2206911146CDE901776E
:1014C00011F084FAA569002D02F080800EAB122283
:1014D0000E9602210F920FAA1193E0691097A84768
:1014E000266A41F28425D4F81880D4F824900EABF3
:1014F0003544B8F1000F08D0119313230FAA3946D1
:10150000E06910970E950F93C047394A394B334F16
:101510004A444B44374404938023DFED2B0A28468A
:10152000019301250C96B0EE600A09970A95009583
:10153000CDE902236FF07F030C22CDE905334FF490
:10154000E06311460B93002308932B4B07932B4624
:1015500011F0CCFFA669002E02F0338013220EABEF
:101560000E9702210F920FAAE06910951193B047D0
:10157000276A1A4ED4F818803E44B8F1000F09D0FB
:101580000EAB0FAA2946E0691193142310950E960D
:101590000F93C0474FF4E06301258022304639465F
:1015A000CDE903334FF4C063CDE901530C23CDE9FA
:1015B000052200930823114A12F008FEA3691FE0D8
:1015C000D0190100101C0100C1C0C03C30920308BA
:1015D000101D0100103D0100309003084429010056
:1015E0002C900308103F0100904301002C8E03084B
:1015F00090450100908501002C8C0308288C03087D
:10160000002B01F0D1870E974FF014080EAF022186
:10161000E0690FAA1095CDF83C8011979847A3690F
:10162000D4E9086943B10FAA2946E069CDF83C80A6
:10163000119710950E969847B54A06F5C441B54BDB
:10164000DFF8DC824A444B44B04400920C220C91F7
:1016500041F2812A0021DFEDB00A01270393B0EEA9
:10166000600A30468023CDF81C80CDE908226FF057
:101670007F02CDE90A1ACDE90422A8490E2206917B
:101680001146CDE9017711F0A1F9A569002D01F00E
:101690007F870EAB1422CDF8388002210F920FAA5B
:1016A0001193E0691097A847266A9D4D0EABD4F8B8
:1016B00018803544D4F82490B8F1000F08D0119365
:1016C00015230FAA3946E06910970E950F93C0476E
:1016D000944A06F5E067944B4A444B4404938023B4
:1016E000DFED8D0A284601930125B0EE600A0C96C5
:1016F00009970A950095CDE902236FF07F030C222C
:10170000CDE905334FF4E06311460B9300230893B2
:10171000864B07932B4611F0E9FEA369002B01F0DD
:10172000308715220E970EAF02210F920FAAE069A3
:10173000109511979847D4F82080A36908F5E066C2
:1017400043B116200FAA294611970F901095E06912
:101750000E969847724F47444FF4E0633046012697
:1017600080223946CDE903334FF4C063CDE90163EC
:101770000C23CDE90522009308236D4A12F026FDC3
:10178000A569002D01F0F0860EAB4FF016090E97FB
:10179000022111930FAAE0691096CDF83C90A8475A
:1017A0005F4D276A0EABD4F818803D44D4F824A0CE
:1017B000B8F1000F08D00FAA3146E069CDF83C908F
:1017C000119310960E95C0475A4A41F284265A4BFF
:1017D00052443E44534400920C22002141F281289D
:1017E000DFED4D0A28460C9701270393B0EE600AFF
:1017F00080230796CDE908226FF07F02CDE90A1811
:10180000CDE904224D490E2206911146CDE901771A
:1018100011F0DCF8A569002D01F099860EAB1622B7
:101820000E9602210F920FAA1193E0691097A84714
:10183000266A41F28425D4F81880D4F824900EAB9F
:101840003544B8F1000F08D0119317230FAA394679
:10185000E06910970E950F93C047394A394B304FC6
:101860004A444B44374404938023DFED2B0A284637
:10187000019301250C96B0EE600A09970A95009530
:10188000CDE902236FF07F030C22CDE905334FF43D
:10189000E06311460B93002308932B4B07932B46D1
:1018A00011F024FEA669002E01F04C8617220EAB23
:1018B0000E9702210F920FAAE06910951193B0477D
:1018C000276A174ED4F818803E44B8F1000F09D0AB
:1018D0000EAB0FAA2946E0691193182310950E96B6
:1018E0000F93C0474FF4E06301258022304639460C
:1018F000CDE903334FF4C063CDE901530C23CDE9A7
:10190000052200930823114A12F060FC20E000BF7A
:1019100090870100108C0100C1C0C03C288A0308D8
:1019200044290100108E010010CE01002888030810
:101930002488030810D0010090D4010024860308F5
:1019400090D6010090160200248403082084030826
:10195000A369002B01F0E9850E974FF018080EAF30
:101960000221E0690FAA1095CDF83C8011979847A5
:10197000A369D4E9086943B10FAA2946E069CDF803
:101980003C80119710950E969847AB4A06F5C441D6
:10199000AA4BDFF8B4824A444B44B04400920C2274
:1019A00041F2812C0C910021DFEDA50A0127039360
:1019B000B0EE600A30468023CDF81C80CDE90822C5
:1019C0006FF07F02CDE90A1CCDE904229D490E2269
:1019D00006911146CDE9017710F0F8FFA569002DB9
:1019E00001F097850EAB1822CDF8388002210F92B6
:1019F0000FAA1193E0691097A847266A924D0EAB83
:101A0000D4F818803544D4F82490B8F1000F08D0E9
:101A1000119319230FAA3946E06910970E950F9379
:101A2000C0478A4A06F5E067894B4A444B44049311
:101A30008023DFED830A284601930125B0EE600A7A
:101A40000C9609970A950095CDE902236FF07F0364
:101A50000C22CDE905334FF4E06311460B930023CC
:101A600008937C4B07932B4611F040FDA369002B94
:101A700001F0488519220E970EAF02210F920FAA8E
:101A8000E069109511979847D4F82080A36908F56C
:101A9000E06643B11A200FAA294611970F901095BE
:101AA000E0690E969847684F47444FF4E06330462C
:101AB000012680223946CDE903334FF4C063CDE9D6
:101AC00001630C23CDE9052200930823624A12F03A
:101AD0007DFBA569002D01F008850EAB4FF01A09BA
:101AE0000E97022111930FAAE0691096CDF83C9051
:101AF000A847554D276A0EABD4F818803D44D4F85A
:101B000024A0B8F1000F08D00FAA3146E069CDF843
:101B10003C90119310960E95C047504A41F284268E
:101B20004F4B52443E44534400920C22284600211D
:101B300041F28125DFED420A0C9701270393B0EEB5
:101B4000600A80230796CDE908226FF07F02CDE975
:101B50000A15CDE9042243490E2206911146CDE92A
:101B6000017710F033FFA569002D01F0B1840EABB1
:101B70001A220E9602210F920FAA1193E069109774
:101B8000A847266A41F28425D4F81880D4F8249016
:101B90000EAB3544B8F1000F08D011931B230FAAE8
:101BA0003946E06910970E950F93C0472E4A2F4B88
:101BB000254F4A444B44374404938023DFED200AE9
:101BC0002846019301250C96B0EE600A09970A9504
:101BD0000095CDE902236FF07F030C22CDE9053398
:101BE0004FF4E06311460B9300230893204B0793B7
:101BF0002B4611F07BFCA669002E01F064841B22A9
:101C00000EAB0E9702210F920FAAE0691095119367
:101C1000B047276A0C4ED4F818803E44B8F1000F44
:101C200028D00EAB0FAA2946E06911931D23109509
:101C30000E960F93C0471DE090180200101D020081
:101C4000C1C0C03C2082030844290100101F0200CB
:101C5000105F0200208003081C800308106102004E
:101C6000906502001C7E03089067020090A70200A6
:101C70001C7C030800238022012530460593394649
:101C800003934FF4C06306924FF4D06202930C2387
:101C90000492AD4ACDE90035082312F097FAA36902
:101CA000002B01F003841D220E970EAF02210F922C
:101CB0000FAAE069109511979847A369266AD4F88E
:101CC000248043B11E200FAA294611970F9010952A
:101CD000E0690E9698479D4A46F204779C4B06F5BC
:101CE000A941424437444344009206220C9141F2F8
:101CF000812A0021DFED970A022530460393B0EEDA
:101D0000600A80230797CDE908226FF07F02CDE9B2
:101D10000A1ACDE9042290490D2206911146CDE917
:101D2000015510F053FEA669002E01F0B2830EABF0
:101D30001E220E97012729460F92E0690FAA46F24C
:101D40000475CDE91073B047266AD4F818800EAB3D
:101D50003544D4F82490B8F1000F08D011931F2314
:101D60000FAA3946E06910970E950F93C0477B493B
:101D700006F540677A4B49444B4404934FF4807313
:101D8000DFED740A28460393802301250622B0EE76
:101D9000600A0C9609970A950095CDE901316FF01C
:101DA0007F031146CDE905334FF440630B930023C5
:101DB00008936C4B07932B4611F098FBA369002BFB
:101DC00001F060831F220E970EAF02210F920FAA1F
:101DD000E069109511979847D4F82080A36908F519
:101DE000406643B120200FAA294611970F90109505
:101DF000E0690E96984708F540554FF40063304669
:101E000001264FF480722946CDE903334FF4C063B5
:101E1000CDE901630623CDE9052200930823524A48
:101E200012F0D4F9A369002B01F020834FF02009B0
:101E30000EAF0E950221E0690FAA1096CDF83C90E6
:101E400011979847256AA369D4F824A005F540584E
:101E50004BB10FAA3146E069CDF83C90119710962E
:101E6000CDF838809847414A05F5E047404B524449
:101E70005344009206224046002142F20158DFED11
:101E8000350A01260393B0EE600A4FF480730C9577
:101E90000797CDE908226FF07F02CDE90A18CDE956
:101EA00004223449082206911146CDE9016610F05A
:101EB0008DFDA369002B01F0CD8220220E970EAF7D
:101EC00002210F920FAAE069109611979847256A90
:101ED000A369D4F8249005F5E0484BB121200FAA5E
:101EE000314611970F901096E069CDF838809847E9
:101EF000214A05F56066214B4A444B4404934FF454
:101F00008073DFED140A404601930C950125B0EE75
:101F1000600A09960A950095CDE902236FF07F03C8
:101F20000622CDE905334FF4606311460B9300237D
:101F30000893134B07932B4611F0D8FAA369002B93
:101F400001F081821EE000BF187C030890A9020006
:101F500010AE0200C1C0C03C187A030810B00200E5
:101F600010300300187603081476030810340300B9
:101F7000103D0300147203081041030010410400D7
:101F8000146E030821220EAF0E9602210F920FAAA3
:101F9000E069109511979847D4F82080A36908F557
:101FA000606643B123200FAA294611970F90109520
:101FB000E0690E96984708F5485500234FF40072E3
:101FC000304601260593294603934FF4C0630692D9
:101FD0004FF48052029306230492B14ACDE90036B1
:101FE000082312F0F3F8A369002B01F020820E956C
:101FF0004FF023090EAD0221E0690FAA1096CDF82B
:102000003C9011959847276AA369D4F824A007F556
:1020100048584BB10FAA3146E069CDF83C90119574
:102020001096CDF8388098479E4A07F5E4419E4BBC
:10203000524453440092032242F2015C0C9100216D
:10204000DFED9A0A02250393B0EE600A4FF4807325
:1020500040460797CDE908226FF07F02CDE90A1CC0
:10206000CDE904229249082206911146CDE9015595
:1020700010F0ACFCA369002B01F0CD8123220E9758
:1020800001260EAF29460F92E0690FAACDE910672D
:102090009847A369256AD4F8248043B124200FAA65
:1020A000314611970F901096E0690E959847814A36
:1020B00005F58046804B05F548514244434404935E
:1020C0004FF48073DFED790A2846019301250C91C6
:1020D000B0EE600A09960A950095CDE902236FF0EB
:1020E0007F030322CDE905334FF4606311460B9360
:1020F00000230893714B07932B4611F0F7F9A3695E
:10210000002B01F0818124220EAF0E9602210F9246
:102110000FAAE069109511979847D4F82080A36919
:1021200008F5804643B125200FAA294611970F9044
:102130001095E0690E96984708F592454FF4A06314
:10214000304601264FF480722946CDE903334FF41F
:102150004073CDE901630323CDE9052200930823F1
:10216000574A12F033F8A369002B01F041810E9514
:102170004FF025090EAD0221E0690FAA1096CDF8A7
:102180003C9011959847276AA369D4F824A007F5D5
:1021900092484BB10FAA3146E069CDF83C901195B9
:1021A0001096CDF838809847464A07F5C441464B0B
:1021B00052445344009203220C9142F201560021F2
:1021C000DFED3A0A01250393B0EE600A4FF4807305
:1021D00040460797CDE908226FF07F02CDE90A1645
:1021E000CDE904223949052206911146CDE9015570
:1021F00010F0ECFBA369002B01F0EE8025220E9776
:102200000EAF02210F920FAAE0691095119798471F
:10221000A369266AD4F8248043B126200FAA294650
:1022200011970F901095E0690E969847284A06F589
:102230008047284B06F548514244434404934FF4E9
:1022400080730125DFED190A019330460C91B0EE41
:10225000600A09970A950095CDE902236FF07F0384
:102260000322CDE905334FF4606311460B9300233D
:102270000893194B07932B4611F038F9A3694BB11A
:1022800026220EA8022110951190E069CDE90E7268
:102290000FAA98472046114EFDF7A8FF20E000BF87
:1022A000106E030810450400104E0400C1C0C03C6D
:1022B000106A03081052040010520500106603084B
:1022C0000C66030810560500105F05000C62030839
:1022D00010630500106306000C5E0308106706001B
:1022E000AA4FD4E908531E441F44A36905F5C868E2
:1022F00005F580794BB12D220121E0690E95CDE9DC
:102300000F210EAA11920FAA9847002220232846D7
:10231000CDF8309008924FF4A862012503930B92F8
:102320004FF480739A4A6FF00F09DFED9A0A29463D
:1023300007926FF07F029FED980A0497CDF82480F2
:102340000A950095CDE90136CDE905292B462A46A7
:1023500011F0CCF8A369002B01F039802D220EAFCB
:10236000CDF8388002210F920FAAE06910951197DD
:102370009847266AA36906F5C8684BB12E200FAAB4
:10238000294611970F901095E069CDF8388098474D
:10239000202360220125404631460095CDE90533D2
:1023A000CDE90322CDE901537C4A082311F00EFF49
:1023B000A369002B00F0FF874FF02E080EAF0E969A
:1023C0000221E0690FAA1095CDF83C80119798473B
:1023D000A369D4E9086943B10FAA2946E069CDF899
:1023E0003C80119710950E9698476D4906F59077A9
:1023F0006C4B06F5924249444B44009141F60C1156
:1024000001256FF0020E0B9100210C920322069120
:102410003046654902930A2305916FF00F0101933D
:102420002023DFED620A9FED5B0A07970895CDE94F
:10243000031ECDE90955114611F094FAA369002B4A
:1024400000F0B4872E220E970EAF02210F920FAA32
:10245000E069109511979847266AA36906F5C86840
:102460004BB133200FAA294611970F901095E069C0
:10247000CDF8388098472023602201254046314618
:102480000095CDE90533CDE90322CDE90153484A52
:10249000082311F09BFEA369002B00F07B874FF00F
:1024A00033080EAF0E960221E0690FAA1095CDF801
:1024B0003C8011979847A369D4E9086943B10FAAF2
:1024C0002946E069CDF83C80119710950E96984703
:1024D000384906F59677384B06F5924249444B4405
:1024E000009141F69811304601250B9100210C9284
:1024F00008260691032231490293142305916FF0B7
:102500000F0101932023DFED2E0A9FED220A07978A
:102510000895CDE90316CDE90955114611F022FAC7
:10252000A3694BB133220EA8022110951190E069E6
:10253000CDE90E720FAA98472046FDF791FE256A55
:10254000A36905F5A0774BB13F220121E069109105
:10255000CDE90E520EAA11920FAA9847002320220D
:1025600028460226012539460096CDE9052360223A
:10257000CDE903234023134ACDE90153082311F089
:1025800025FEA369002B00F0F9861DE010870600E8
:102590008C5D0308BC5B173D8EDB223C885D030825
:1025A00090870600D0920600605D030843AAA53D0F
:1025B0005C5D0308F892060078A906000C5D03082C
:1025C0004E0A183C085D03083F220E970EAF3146B5
:1025D0000F920FAAE069CDE910579847266AA369C0
:1025E000D4F8249006F580484BB127200FAA29463D
:1025F00011970F901095E069CDF838809847B5494C
:1026000006F51872B44B49444B440493202301252A
:102610000C9203934FF4807303224FF00509DFED12
:10262000AF0A40469FEDAE0A09960A950095CDE99E
:1026300001314FF4A86311460B9300230893A94B73
:1026400007936FF07F03CDE905392B4610F04EFF5D
:10265000A3694BB127220EA8022110951190E069C1
:10266000CDE90E620FAA98472046FDF733FE266A91
:10267000A36906F5187506F560764BB14122012174
:10268000E0691091CDE90E520EAA11920FAA984757
:10269000A0232846012520223146CDE903336023BB
:1026A000CDE901530323CDE90522009308238E4A87
:1026B00011F08CFDA369002B00F054860E964FF0AC
:1026C00041090EAE0221E0690FAA1095CDF83C90A9
:1026D00011969847276AA369D4F824A007F5607873
:1026E0004BB10FAA2946E069CDF83C9011961095A0
:1026F000CDF8388098477D4907F548527C4B5144C6
:1027000053440091032101264FF0080E0C9205223C
:1027100002931423DFED770A4046019320239FEDB7
:10272000760A0797CDE9081141F69811CDE90A61BB
:1027300000210691714905910C21CDE9031E114636
:1027400011F010F9A369002B00F0058641220EADAF
:102750000E9702210F920FAAE069109611959847E3
:10276000D4F82080A36908F5187743B14C200FAA4C
:10277000314611950F901096E0690E97984708F52D
:102780006075A0230126202238462946CDE903336F
:102790006023CDE901630323CDE9052200930823DB
:1027A000574A11F013FDA369002B00F0C6854FF0C6
:1027B0004C090EAF0E950221E0690FAA1096CDF8D4
:1027C0003C9011979847256AA369D4F824A005F591
:1027D00060784BB10FAA3146E069CDF83C90119773
:1027E0001096CDF838809847464905F1B406464B17
:1027F00005F5485551445344009103210C9501259A
:1028000005226FF0020C02930A23DFED400A4046D6
:10281000019320239FED380A0796CDE9081141F670
:102820000C11CDE90A5100210691394905910C217D
:10283000CDE9031C114611F095F8A3694BB14C2268
:102840000EA8022110951190E069CDE90E620FAA41
:10285000984720462F4EFDF785FD2F4F256A626A67
:10286000D4F818A005F5606905F5485816441744D2
:1028700005F50065BAF1000F0AD0222301210FAA45
:10288000E069CDF83890CDE90F310EAB1193D04708
:10289000202306220C95012503934FF4807304979F
:1028A0000827DFED1E0A48469FED0D0A1146CDF8B8
:1028B00024800A950095CDE901364FF4A8630B9367
:1028C00000230893164B07936FF07F03CDE905377C
:1028D0002B4627E0C8A90600C8C90600329DB13DB5
:1028E000C1C0C03C885C0308845C030848CA060079
:1028F000C8E006004E0A183CDC61BC3D345C0308AD
:10290000305C030818E1060058EC060043AAA53D18
:10291000085C030880EC0600800C070054F9E53DD4
:10292000885B030810F0E2FDA3694BB122220EA8D8
:10293000022110951190E069CDE90E820FAA984707
:102940002046FDF74BFD256AA36905F5006605F5F0
:1029500048654BB153220121E0691091CDE90E6227
:102960000EAA11920FAA98474FF4807330460126A1
:1029700020222946CDE90333C023CDE90163062394
:10298000CDE9052200930823AF4A11F01FFCA3698B
:10299000002B00F0C4844FF053090EAF0E950221B6
:1029A000E0690FAA1096CDF83C9011979847256AD8
:1029B000A369D4F824A005F548684BB10FAA3146A5
:1029C000E069CDF83C9011971096CDF83880984783
:1029D0009E4905F5A0779E4B05F5A45551445344F7
:1029E00000910621012608220C956FF00205029342
:1029F0000A23DFED980A4046019320239FED960AB3
:102A00000797CDE9081141F60C11CDE90A610021C3
:102A10000691924905910C21CDE90315114610F05C
:102A2000A1FFA369002B00F0738453220EAD0E9713
:102A300002210F920FAAE069109611959847D4F8D9
:102A40002080A36908F5006743B158200FAA3146DA
:102A500011950F901096E0690E97984708F5486514
:102A60004FF480730126202238462946CDE90333EE
:102A7000C023CDE901630623CDE905220093082395
:102A8000774A11F0A3FBA369002B00F033844FF0C9
:102A900058090EAF0E950221E0690FAA1096CDF8E5
:102AA0003C9011979847256AA369D4F824A005F5AE
:102AB00048684BB10FAA3146E069CDF83C901197B8
:102AC0001096CDF838809847664A05F52A76664B09
:102AD00005F5A4555244534406210C950125029353
:102AE000009214230822DFED610A0193404620235F
:102AF0009FED590A07960492CDE9081141F6981105
:102B0000CDE90A5100210691594905910C21039103
:102B1000114610F027FFA3694BB158220EA80221DD
:102B200010951190E069CDE90E620FAA98472046F2
:102B3000504EFDF79DFC504FDFF85091D4F818A08F
:102B4000D4E908522E4405F5F4581744914405F58C
:102B5000AF65BAF1000F09D01C2301210FAAE0696B
:102B60000E96CDE90F310EAB1193D04720230C22E6
:102B70000C95012503938023DFED400A30469FED3D
:102B8000400A1146CDF81090CDF824800A950095A2
:102B90000692CDE90137002308933A4B07934FF48F
:102BA00050730B936FF07F0305932B4610F09EFC40
:102BB000A3694BB11C220EA8022110951190E06967
:102BC000CDE90E820FAA98472046FDF78DFC256AB5
:102BD000A36905F5425605F5AF654BB165220121A4
:102BE000E0691091CDE90E620EAA11920FAA9847E2
:102BF0004FF4E0733046012620222946CDE9033305
:102C00004FF4C073CDE901630C23CDE90522009395
:102C100008231D4A11F0DAFAA369002B00F05C8347
:102C20004FF065090EAF0E950221E0690FAA1096CC
:102C3000CDF83C9011979847256AA369D4F824A051
:102C400005F5AF6873B323E0845B0308000D07004C
:102C50004018070043AAA53D003EF53D5C5B030814
:102C6000585B030868180700E82E07004E0A183C56
:102C7000085B030844290100382F0700C631A23D34
:102C8000C1C0C03C885A0308845A0308383F070073
:102C90000FAA3146E069CDF83C9011971096CDF817
:102CA00038809847B74941F6F857B74B2F445144FD
:102CB000534405F5854500910C2101260E2202930F
:102CC0006FF002090A23DFEDB10A9FEDB10A404619
:102CD000019320230C950797CDE9081141F60C11BB
:102CE000CDE90A6100210691AA4905910421CDE9A7
:102CF0000319114610F036FEA369002B00F0CB82B9
:102D000065220EAD0E9702210F920FAAE069109670
:102D100011959847D4F82080A36908F5425743B12C
:102D20006A200FAA314611950F901096E0690E9710
:102D3000984708F5AF654FF4E07301262022384626
:102D40002946CDE903334FF4C073CDE901630C2369
:102D5000CDE90522009308238F4A11F037FAA369C1
:102D6000002B00F08A824FF06A090EAF0E95022107
:102D7000E0690FAA1096CDF83C9011979847256A04
:102D8000A369D4F824A005F5AF684BB10FAA31466A
:102D9000E069CDF83C9011971096CDF838809847AF
:102DA0007E4942F298367E4B2E445144534405F5F9
:102DB000854500910C210C95012540460E22029379
:102DC0004FF008081423DFED770A9FED710A019395
:102DD00020230796CDE9081141F69811CDE90A5153
:102DE00000210691704905910421CDE9031811468F
:102DF00010F0B8FDA3694BB16A220EA8022110950C
:102E00001190E069CDE90E620FAA9847204649F675
:102E10004417FDF7B3FBDFF8B481DFF8B491634EDC
:102E2000A369D4E908522F442E449044914405F5F7
:102E3000AF654BB10E220121E0690E97CDE90F215C
:102E40000EAA11920FAA9847202318224FF00B0EBA
:102E50000C95039340230125DFED550A9FED550A9C
:102E600038461146CDF8109009960A950095CDE99F
:102E700001384FF410730B93002308934E4B0793C4
:102E80006FF07F03CDE9053E2B4610F02FFBA369C1
:102E90004BB10E220EA8022110951190E069CDE9E8
:102EA0000E620FAA9847204648F68025FDF7A2FB40
:102EB00042F6D867236AA6691D441F444EB17723A2
:102EC00001210FAAE0691091CDE90E530EAB1193C9
:102ED000B0474FF450730126202228463946CDE9E9
:102EE00003334FF44073CDE901631823CDE9052284
:102EF00000930823314A11F069F9A369002B00F00F
:102F0000AD810E974FF077080EAF0221E0690FAA4E
:102F1000109642F6D865CDF83C8011979847D4F8C2
:102F20002090A3694D44D4F824A043B10FAA3146A0
:102F3000E069CDF83C80119710960E95984720498E
:102F40004DF280231F4A09F5AF6651444B44524469
:102F500000911821284601250C936FF002070A23DF
:102F600002921A22DFED090A019320239FED160A2F
:102F70000796CDE9081141F60C11CDE90A5100215F
:102F800028E000BFB83F0700F84A070043AAA53D64
:102F9000E9A0DE3D5C5A0308585A0308204B07009D
:102FA000A06107004E0A183C085A03084429010092
:102FB000DEA7CB3CC1C0C03C885903088459030834
:102FC000706A0700B0750700684CDE3DF0610700CD
:102FD000F06907000691B34905910321CDE9031774
:102FE000114610F0BFFCA3694BB177220EA8022155
:102FF00010951190E069CDE90E620FAA984720461E
:1030000044F6C447FDF744FB42F6D866256AA36937
:103010002F442E4405F5AF654BB17D220121E069B7
:103020000E96CDE90F210EAA11920FAA98476FF0C4
:10303000F703172231463846CDE903359A4B02256E
:10304000CDE901320095012341F6EC5211F0B4F8BC
:10305000A369002B00F0FB807D220E9701260EAFA6
:1030600029460F92E0690FAA44F6C445CDE91067DE
:103070009847236AD4F82C801D44A36943B17E206D
:103080000FAA314611970F901096E0690E95984758
:103090006FF07F039FED850A41F6EC5228464146CA
:1030A0000FF064FCA369002B00F0C9807E2201268A
:1030B0000EAFCDF838800221E069119748F68025DF
:1030C000CDE90F260FAA9847D4F82080A36945447C
:1030D00043B17F200FAA314611970F901096E069F7
:1030E0000E95984742F6D86646444FF45073012730
:1030F000202228463146CDE903334FF44073CDE911
:1031000001731823CDE9052200930823684A11F0C2
:103110005DF8A569002D00F083800EAB4FF07F09AC
:103120000E96022111930FAAE06942F6D866109715
:10313000CDF83C90A847256AD4F818800EAB2E44F1
:10314000D4F824A0B8F1000F08D00FAA3946E069DE
:10315000CDF83C90119310970E96C047554948F210
:103160005837554B2F445144534405F5AF650091F2
:1031700018210C95012530461A22029308261423A3
:10318000DFED4E0A9FED4E0A019320230797CDE90C
:10319000081141F69811CDE90A51002106914949DB
:1031A00005910321CDE90316114610F0DBFBA3695D
:1031B0004BB17F220EA8022110951190E069CDE954
:1031C0000E720FAA9847204642F6D865FDF7D4FA4A
:1031D000226AA369266B15444BB185220121E0695F
:1031E0001091CDE90E520EAA11920FAA984708230A
:1031F0009FED320A43F6D832284631460FF0B6FB2F
:10320000A36953B1852101220EA80E96CDE90F12B4
:1032100011900FAA0221E06998476069FDF739BB58
:10322000D4E9085242F6D8662249234B48F258376F
:103230002E4411442F44134405F5AF6597E7236AE4
:1032400048F6802542F6D8661D441E444DE7236AA1
:1032500044F6C445D4F82C801D4419E7D4E908632A
:10326000194942F6D865194A194435441A444DF2B1
:103270008023334406F5AF666AE6D4E90852144960
:1032800042F29836134B05F5AF682E4411441344AF
:1032900005F585458DE5256A05F5425705F5AF65C8
:1032A00049E500BF5C5903088021D5520000803BEE
:1032B00058590308D8750700588C07004E0A183C67
:1032C000684CDE3D08590308706A0700B0750700B6
:1032D000204B0700A0610700D4E90852D34941F60A
:1032E000F857D34B05F5AF682F441144134405F547
:1032F0008545E0E4D4E90851CE4ACF4B05F548684E
:1033000005F52A760A440B4405F5A455FFF7E4BBFE
:10331000256A05F5006705F54865FFF7A1BBD4E907
:103320000852C649C64B05F5486805F5A077114413
:10333000134405F5A455FFF753BBD4E90852C1491E
:10334000C14B05F5607805F1B4061144134405F549
:103350004855FFF751BA256A05F5187705F56075E8
:10336000FFF70FBAD4E90872B849B94B07F560788E
:103370001144134407F54852FFF7C3B9D4E9086272
:10338000B449B54B06F580481144134406F518724C
:10339000FFF73BB9D4E90862B049B14B06F596771F
:1033A0001144134406F59242FFF79AB8266A06F5CF
:1033B000C868FFF760B8D4E90862AA49AA4B06F5C5
:1033C00090771144134406F59242FFF716B8266A27
:1033D00006F5C868FEF7DCBFD4E90861A34AA44B30
:1033E00006F580470A440B4406F54851FEF726BF10
:1033F000D4E908719F4AA04B07F592480A440B4450
:1034000007F5C441FEF7D6BE256A05F5804605F5E9
:103410009245FEF793BED4E90851984A984B05F5BA
:1034200080460A440B4405F54851FEF748BED4E9EE
:103430000871944A944B07F548580A440B4407F521
:10344000E441FEF7F7BD256A05F5606605F54855C8
:10345000FEF7B3BDD4E908518C4A8D4B05F5E04821
:103460000A4405F560660B44FEF748BDD4E90851EF
:10347000884A894B05F540580A4405F5E0470B4456
:10348000FEF7F7BC256A05F5406605F54055FEF7E1
:10349000B4BCD4E9086246F204758049804B06F555
:1034A0004067354411441344FEF767BCD4E9086112
:1034B0007C4A46F204777C4B0A4437440B4406F5B9
:1034C000A941FEF711BC276A784E3E44FEF7D2BBF5
:1034D000D4E9086141F28425754A764B734F35442F
:1034E0000A440B443744FEF767BBD4E908716F4DBB
:1034F00041F28426704A714B3D440A443E440B44D9
:10350000FEF712BB236A694F03F5E0661F44FEF71E
:10351000CCBAD4E90861654D694A06F5E067694BA4
:1035200035440A440B44FEF782BAD4E90861664A7E
:10353000664BDFF878810A440B4406F5C441B04479
:10354000FEF72CBA276A594E3E44FEF7CBB9D4E9B0
:10355000086141F284255E4A5E4B544F35440A446B
:103560000B443744FEF77FB9D4E908714F4D41F25F
:103570008426594A594B3D440A443E440B44FEF7C5
:103580002AB9236A494F03F5E0661F44FEF7E4B801
:10359000D4E90861454D524A06F5E067514B354480
:1035A0000A440B44FEF79AB8D4E908614E4A4F4BDF
:1035B000DFF8F8800A440B4406F5C441B044FEF736
:1035C00044B8276A394E3E44FDF7E4BFD4E90861A8
:1035D00041F28425464A474B344F35440A440B4454
:1035E0003744FDF798BFD4E90871304D41F2842685
:1035F000414A424B3D440A443E440B44FDF743BF1D
:10360000236A42F64456294F1E441F44FDF7FCBE70
:10361000D4E908523A4942F644563A4B05F6441862
:1036200011442E441344FDF7AFBE00BFB83F07005E
:10363000F84A070068180700E82E0700000D070089
:103640004018070018E1060058EC060048CA0600BA
:10365000C8E00600C8A90600C8C90600F89206001E
:1036600078A9060090870600D09206001063050036
:103670001063060010560500105F0500105204008C
:103680001052050010450400104E040010410300C4
:103690001041040010340300103D030010B002007C
:1036A0001030030090A9020010AE0200442901006E
:1036B0009067020090A7020010610200906502006E
:1036C000101F0200105F020090180200101D02007F
:1036D00090D601009016020010D0010090D4010095
:1036E000108E010010CE010090870100108C0100A7
:1036F0009045010090850100103F010090430100BA
:10370000101D0100103D0100D4E908716D4D6E4A95
:1037100007F644186D4B3D440A440B44FDF7ECBDDD
:10372000236A49F64416674F1E441F44FDF78CBDBB
:10373000D4E90851664A49F64416664B05F6441822
:103740000A442E440B44FDF740BDD4E908714DF600
:10375000A445614A614B07F644183D440A440B44B2
:10376000FDF7ECBC236A44F6A4464DF6A4471E447C
:103770001F44FDF7A4BCD4E908524FF69041584BC2
:1037800044F6A44605F2A448114413442E44FDF720
:1037900055BCD4E908714CF6C0554FF6F0224FF6EF
:1037A000104307F2A4483D440A440B44FDF7FDBB17
:1037B000236A4DF6E0164CF6C0571E441F44FDF731
:1037C000A5BBD4E908614DF6E0754FF270624FF683
:1037D00070234DF6E01735440A440B443744FDF797
:1037E00055BBD4E908714EF2E0554FF2D0424FF28A
:1037F000F0534DF6E0763D440A440B443E44FDF759
:10380000FABA236A4FF660664EF2E0571E441F4430
:10381000FDF7AFBAD4E9086246F660654FF2502171
:103820004FF250434FF66067354411441344374418
:10383000FDF75EBAD4E9087147F260154FF28012C5
:103840004FF2102346F660693D440A440B44B944E4
:10385000FDF7FEB9236A47F6705647F260171E441B
:103860001F44FDF79EB9D4E908621E4D4FF2C00116
:103870004FF2401347F67057354411441344374410
:10388000FDF74FB9D4E90871174D4FF258024FF2C6
:10389000A003DFF850803D440A440B44B844FDF7D0
:1038A000F5B8266AFDF7B0B8D4E908610F4D4EF6B9
:1038B00060724FF238030A4435440B4406F59031E8
:1038C000FDF763B844290100D0190100101C010064
:1038D000D0080100D018010090050100D0070100B8
:1038E0009004010070A3010070A601008C22010069
:1038F000D0B10346580715D1586930B40F4C1D6834
:10390000A54207D19AB10124146009B19B6A0B60EA
:1039100030BC70470028FBD14FF4403230BC104619
:103920005A617047064870474FF44030704700288E
:10393000EED1044A10465A61EAE700BF0001C0B167
:103940000200030001000200F0B10346580719D13C
:10395000586930B4114C1D68A5420BD1BAB103248B
:10396000146029B1DA6A0A601A6B4A605B6B8B607B
:1039700030BC70470028FBD14FF4403230BC1046B9
:103980005A617047064870474FF44030704700282E
:10399000EED1044A10465A61EAE700BF0001C0B107
:1039A0000200030001000200002836D038B54507A8
:1039B000044630D1254B05689D421DD100292FD0EA
:1039C000012A21D10B68002B31D09A0737D1204A28
:1039D00023621A444DF28023A2620A6813441D4AEE
:1039E000E3620B681A441C4B22630A681344636346
:1039F000FCF77EFB606938BD40690028FBD14FF4BD
:103A000040331846636138BD40690028F3D1134B39
:103A10001846636138BD124838BD4FF440307047D6
:103A200040690028E7D10F4B1846636138BD6069D3
:103A30000028E0D14FF480231846636138BD6069E7
:103A40000028D8D1084B1846636138BD0001C0B1C9
:103A500090220100304A010090D2020001000400CF
:103A6000020003000100020070000400FEE70000F5
:103A7000DFF834D0002103E00C4B5B584350043195
:103A80000B480C4B42189A42F6D30B4A02E0002333
:103A900042F8043B094B9A42F9D301F063F820F055
:103AA00015F800F085FE7047000008244CDF0C0874
:103AB0000000002464110024C0110024A823002465
:103AC000FEE7000000487047401082000220704767
:103AD000B7EE000A704700BFBFEE000A704700BF94
:103AE0004FF0FF30704700BF70B5002384B004462C
:103AF0000E461546CDE901330EF07EF8D0B91C48CC
:103B0000FCF71AFB00282DD12368012203A91848CD
:103B10000393FFF749FFF8B901AA31461448FFF7AC
:103B2000E7FE98B902AA29461148FFF70DFF38B9F8
:103B300004B070BD0F4BBD210F4A10481FF0A0F814
:103B40000C4BD1210C4A0D481FF09AF8094BCE219D
:103B5000094A0A481FF094F8064BCB21064A074849
:103B60001FF08EF8034BC021034A04481FF088F869
:103B70005012002450280B08EC280B0864280B086E
:103B800008B501210548FCF769FE00B908BD044BE2
:103B9000E321044A04481FF073F800BF50120024C8
:103BA00050280B08E4280B0864280B080268D36827
:103BB00023F00103D36000F0E9BD00BF836B9A6C72
:103BC000526D022A06D0012283F83520DA6C42F0C9
:103BD0004002DA6400F0DABD03460B490B4870B5C9
:103BE0009C6B82B00126E36B626CA56B9B00009618
:103BF00003FB052209F0FEFD08B902B070BD02B05A
:103C0000BDE8704000F0C2BD000000308812002402
:103C100001680E4BCA68186C22F00102CA609A6BE8
:103C200001329A639A6B824200D070471A68D16859
:103C300041F00101D160126812F0020203D00122AA
:103C400083F8352070479A63704700BFA01F002497
:103C5000037B002BFCD070470022034610461A73EA
:103C600004F0E0BF5F4A0023D2F8D4102DE9F04100
:103C700041F001015C4CD0F8846082B023610546BC
:103C8000E3622046C4E90D33C2F8D410D2F8D43030
:103C9000564A03F0010322604FF0804201938023D3
:103CA0000199E3602362A3624FF08053C4E90123CA
:103CB00040F2022240F60803C4E905234FF00073E6
:103CC000202263624FF40033E261236309F018FDA0
:103CD00000287ED100220F217A2006F0ABF87A204E
:103CE00006F0E4F8002004F0D3FFC82006F070F8D6
:103CF00000220121104604F05FFD002866D13C4AF5
:103D0000936D43F440339365936D23F0C07343F494
:103D10000003936545F24063364A12689A4245D0E3
:103D20002969002004F08EFF074600283DD1324D5E
:103D3000642006F04DF895F83430012B50D02968F6
:103D400002234FF00108A86C85F8353085F83480DF
:103D50000B682A4A43F480430B600B6823F002038C
:103D60000B600B6841F8283B254BAF63C363A0236E
:103D70006264EB63234A244B0765C3646265F022E7
:103D8000EB6B2A64214A6E6406F0B6FD034618BB4D
:103D90002968C8200A6842F001020A6085F83430B8
:103DA00002B0BDE8F04106F013B8FEE7184AC023A0
:103DB00043F2360110680DF103028DF80330012340
:103DC000183003F0A7FB0028AAD0FEE700F0DEFCC5
:103DD00095E700F0DBFC7DE74023EB6485F8358058
:103DE000FEE700BF00440258881200244000005241
:103DF000000402406C1F0024A01F0024113C010895
:103E0000D93B0108AD3B0108BD3B01080000003073
:103E1000F01F002408B572B6034B012200201A736C
:103E200004F0F0FE62B608BD102F9BD072B662B6E9
:103E3000704700BF00F0AABC1F4A0121136830B5CB
:103E400023F00103002587B004461360284605F0DF
:103E500021FD00204FF44871D4F88C306A46CDE93A
:103E6000000100204FF4F071CDE9020129462846F7
:103E7000CDE9045305F01AFD10480CF0ADFF2846BB
:103E80000CF0DAFF4FF07F400CF0EEFF4FF0FF3008
:103E90000CF0E2FF0A480CF0EFFF0A4B0A48342509
:103EA0009B680221D4F8902005FB0303DA6509F032
:103EB0000BFC07B030BD00BF00400052D4C00C085E
:103EC000940F0024382000245420002410B5044608
:103ED00088B04FF07F400DF033F8424B4D22322135
:103EE000002004F0E9FF404B55224FF41B710020E5
:103EF00004F0E2FF0CF0C8FF014601233B4AC988E9
:103F0000002001EB81010DF0F7F80CF0BDFF014638
:103F10000123374AC988002001EB410199400DF087
:103F2000EBF80CF0B1FF01460123324AC9880020AA
:103F300001EB810199400DF0DFF80CF0A5FFC1887D
:103F400001232D4A01EB410001EB800100200DF01F
:103F5000D3F80CF099FF01460123284AC9880020B4
:103F6000C1EBC10199400DF0C7F80CF08DFF01467F
:103F70000123234AC9880020C1EB01110DF0BCF8D0
:103F80000CF082FF014601231E4AC9880020090166
:103F90000DF0B2F800232362236A002BFCD0D4F882
:103FA00090000222184900F0BBFB00234FF4487137
:103FB0004FF4F0701A460091CDE90533CDE9033393
:103FC000CDE90101D4E9231000F048FB4FF47A60F9
:103FD00005F0FEFE4FF07F4008B0BDE810400CF049
:103FE000AFBF00BF90350C088C2A0B08F4280B08D3
:103FF00008290B081C290B0840290B086C290B0801
:1040000098290B08B4290B08007017002DE9F84F08
:10401000D0F88440054601224FF41631204600F0C6
:104020007FFB4FF07F400CF08BFFD5F890001D4DCB
:104030004FF4487E4FF0000C0544AEEB0C010646F1
:1040400004F52077890034F8022B02F01F08C2F330
:10405000451BC2F34129C2F382034FEAD22ABC4274
:1040600043EAC80306EB010849EA8B094FEA5232DA
:1040700043EA092342EACA0243EA024343F07F4388
:10408000C6E90033735006F10806C8F80430DAD1E7
:1040900000F5C8500CF5C86C0EF5C86E8542CCD141
:1040A000BDE8F88F007017002DE9F04FD0E91853E4
:1040B0002DED048B002BA1B0824640F336810EAB70
:1040C00018354FF0000B9FEDA69ADFEDA68A0D93F1
:1040D00056E0A54850F821603946404600960DF05C
:1040E00063F8334621460B980A220CF0D5FE33467E
:1040F0000C990A2209980CF0F9FE30460CF0B4FE37
:10410000C6F30722C6F30743134453FA86F6B6F5FF
:10411000BF7FB4BF4FF0FF304FF07F400CF09CFEEC
:10412000B7EEC87A0D9E0521904A30468DED007B92
:104130001FF0B2FB0CF0A8FE4A46044639460323A2
:1041400040460CF0D9FF4846FBF7CAFF3246A48828
:1041500003230A9E39460BF1010B183500FB04605E
:104160000CF0CAFF4FF07F400CF07EFE022003F0FF
:1041700055FE002003F040FEDAF864305B4564DD54
:1041800015ED066A55ED047A26EE096A55ED056AC5
:1041900067EE897A55F8041CDAF8400066EEA86AE2
:1041A000BCEEC66A15ED037AFCEEE77A50F8219072
:1041B00027EE287A232916EE100A15ED028A17EE4B
:1041C000902AFCEEE67A8DED096AA0EB520817EE14
:1041D000904AFCEEC77A08F101060A96A0F105069E
:1041E00017EE903A0B96A4F10506A4EB53070C9634
:1041F0007FF76FAF5E494046009139460CF0D4FF1F
:1042000021460B980A225A4B0CF046FE584B0C994B
:104210000A2209980CF06AFE55480CF025FE4FF072
:104220007F400CF019FEB7EEC87A0D9E05214F4A6B
:1042300030468DED007B1FF02FFB0CF025FE032395
:1042400004464A46404639467BE70024494B0F2244
:104250004FF420719C652046474B04F02DFE474BE0
:10426000C8224FF42071204604F026FE4FF0FF30A4
:104270000CF0F2FDBBF1010F6FD05A4640490D9C86
:1042800020461FF03DFB0CF0FFFDC18822460123B4
:1042900009014FF4A0700CF02FFF4FF0FF300CF02D
:1042A000DBFDDFED386A0D9C37492046DAE90B2348
:1042B0009B1A07EE903AF8EE677A86EEA77AB7EE89
:1042C000C77A53EC172B1FF01BFB0CF0DDFD0146EA
:1042D00001232246C9884FF4A07001EBC101994027
:1042E0000CF00AFF0023CAF82030DAF82030002B47
:1042F000FBD0DAF890000222244900F011FA0023E2
:104300004FF448714FF4F0701A460091CDE905332F
:10431000CDE90333CDE90101DAE9231000F09EF97C
:1043200021B0BDEC048BBDE8F08F00241149124B85
:104330000F228C6520464FF42071A34604F0BCFD8B
:104340000E4BC8224FF42071204604F0B5FD0EAB91
:104350004FF0FF300D930CF07FFD5A460C498EE76D
:10436000000020440000F043FC290B08D0290B0872
:1043700000A5FFFFFC20002490350C08C4750B0835
:10438000D8290B0800007A44F0290B0800701700A8
:10439000E4290B08024B012202211A6209F094B9A8
:1043A000102F9BD02DE9F041044690B000F054F955
:1043B0004FF4A072D4F884304FF00208C026C02712
:1043C0000B930CA9D4F88030E06208A80F93F02377
:1043D000CDF82880CDF83880CDE908230022CDE93A
:1043E0000C670CF01BFB48BBE369012B28D00422AF
:1043F000D4F88000A16F0E92A269CDF828800B90AE
:104400000F91CDE90867CDE90C67022B17D172B186
:104410002C4A8B180244157882429178A3F1030349
:104420005D71A2F10302D97015791D71F3D10022DB
:104430000CA908A80BF0FEFC40B3FEE7FEE7FEE780
:1044400042464FF490310546D4F8800000F068F9F8
:104450000423D4F880000E93A16FCDF828800B9030
:104460000F91D4E90623CDE90867012BCDE90C674C
:10447000CBD106922A46CDF80C80CDE90433C02377
:10448000CDE9013300932B4600F0E8F8E269012AF8
:1044900013D0A36B012B0DD0022B00D0FEE70A49ED
:1044A00004F1780321441A6882F0803243F8042B27
:1044B0009942F8D110B0BDE8F0810449E06F00F0F6
:1044C0002FF9E6E7FDAF010078B0010000C203005C
:1044D00010B5044600F0C0F86062FFF751FB00F031
:1044E000BBF8A06210BD00BF38B504462DED028BAD
:1044F000237B002BFCD0FFF7E5FA02280ED0636C7B
:1045000003B1FEE704F1480204F1600104F16C001C
:1045100000F094F86064002856D0FEE7FFF7D6FA62
:10452000012836D0022819D00028E8D1FFF7D0FAA8
:10453000E16E41F6EC5347F2B072B0EE407A0B44B4
:104540000A4413F9010D07EE900A9942F8EEE77A52
:1045500067EE877A62ED017AF3D1D0E7FFF7BCFA14
:10456000B0EE408AFFF7BCFAE56E41F6EC5247F236
:10457000B0712A44294412F9013D1B1A954207EEF5
:10458000903AF8EEE77A67EE887A61ED017AF2D137
:10459000B5E7FFF7A1FAB0EE408AFFF7A1FAE56EA2
:1045A00041F6EC5247F2B0712A44294412F8013D19
:1045B0001B1A954207EE903AF8EEE77A67EE887A92
:1045C00061ED017AF2D19AE700F046F82063BDEC84
:1045D000028B38BD10B584B0002304467C30694698
:1045E00001AACDE90033CDE90233FFF77DFA009B44
:1045F0005BB1019AA3674AB1029BE26633B1039AA9
:1046000023671AB1626704B010BDFEE7FEE700BF82
:104610000346022140F6F6620A204FF07C5C1865E2
:1046200003F14800C3F858C0C3E91212024901223D
:104630005965DA650DF046BA9A99193F10B50368C5
:1046400084B00393D0E9013401A8029401930DF0E2
:104650003FFA04B010BD00BF05F0B4BB2DE9F04F28
:1046600087B0DDF85090BDF840B0B9F1040FCDE946
:1046700003011846BDF84430DDE91278DDE915562E
:1046800005932CD807FB0022234850F8290000FB93
:1046900002F30293214C4FF0010AA7EB0B072046CF
:1046A00007F074F9003D4FF00003204618BF0125C4
:1046B000311E236218BF01212D046364FF23C4F857
:1046C0000890C4F84880E7606560A165C4F84CA014
:1046D000236507F019F928B107B0BDE8F08F002372
:1046E0000293D7E75146204607F062FB0028F3D13A
:1046F000029B2046049A03991A44059B00935B464B
:1047000007F0CAF90028E7D11E21204607B0BDE80E
:10471000F04F07F01DBA00BFD8B70C08FC200024EA
:1047200040EA0103DB0606D1012A05D0002901DD9C
:10473000022A1AD07047FEE70029FBDD10B40446B8
:10474000BFF34F8F4B1E00F120010F4A23F01F03D0
:104750000B44C2F85C4220349C42FAD1BFF34F8F25
:10476000BFF36F8F5DF8044B7047BFF34F8F064A5E
:104770000144C2F8680220300B1A002BF9DCBFF3A9
:104780004F8FBFF36F8F704700ED00E008B500203A
:1047900003F044FB012003F041FB022003F03EFB49
:1047A000032003F03BFB022003F026FBFEE700BFE3
:1047B00080B59EB005F09EFB4FF05040A04A01210D
:1047C000A04B0C900BA8ADF82C10CDE90D2305F0F3
:1047D000AFFB042005F09CFB9B4A536913F40033A4
:1047E00011D1BFF34F8FBFF36F8FC2F85032BFF3B9
:1047F0004F8FBFF36F8F536943F400335361BFF39F
:104800004F8FBFF36F8F9048436913F4803324D1E7
:10481000C0F88430BFF34F8FD0F8805043F6E07675
:10482000C5F34E34C5F3C905640104EA06012B46FD
:1048300041EA8372013BC0F860225A1CF8D1203C47
:1048400014F1200FF1D1BFF34F8F436943F480334C
:104850004361BFF34F8FBFF36F8F05F077FA0420EA
:1048600009F0F8F8794B0021794A0191D96A21F0D1
:104870000101D962DB6A03F001030193936943F4F8
:1048800040439361936903F440430193019B93690F
:104890009B04FCD54FF480324FF001080226002320
:1048A00008240BA80E9312931D931A961C931B9425
:1048B000CDE90B8205221692A022CDE9172604220B
:1048C000CDE91466199209F0E9FC002840F0B680A1
:1048D0003F234FF040094FF0030A059003934FF434
:1048E0008063314603A80694CDF810A0CDF8289037
:1048F0000993CDE907990AF057F80746002840F0D8
:104900009D80544D544C2B6843F080032B60D5F8A8
:10491000F43043F00203C5F8F430D5F8F43003F076
:1049200002030293029B05F06BFAC4F81080204644
:104930006764C4E90E8AC4E90688D5F8E03043F418
:104940000023C5F8E030D5F8E03003F400230B93E2
:104950000B9B424B27736363414B27622364414B9C
:104960002366FFF755FE05466064002848D13E4A9D
:104970003E49C4F88C2002F500023D4BC4F890205B
:104980003C4AC4F884301268A2673B4A1268E26766
:104990004A6822678A6862670A6801461846E266C2
:1049A00003F5C842C4F88820344AC4F880204FF484
:1049B00016321FF022F84FF416313246FFF7B0FEE0
:1049C000284603F0EBF9404603F0E8F9304603F0DF
:1049D000E5F9504603F0E2F92046FFF72DFA2046AC
:1049E000FFF740F92046FFF7F5FD254940F2031394
:1049F000284681F802900B8004F082FF08B1FEE7A0
:104A0000FEE705F061F900B1FEE72046FFF75EFA28
:104A10002046FFF71DF92046FFF7F8FA2046FFF77A
:104A2000C1FC2046FFF718F92046FFF751FD20464C
:104A3000FFF75AFD2046FFF737FBE9E7FFF7A6FE31
:104A4000180001030000010100ED00E0000400581F
:104A50000048025800440258102F9BD0F81200243E
:104A60005C0E002400C899D0000000D08011002402
:104A7000007097D0A0110024580E0024C0230024F9
:104A8000F4120024704700BF704700BFFEE700BF6C
:104A9000FEE700BFFEE700BFFEE700BF704700BFB4
:104AA000704700BF704700BF05F080B9002004F0D8
:104AB0002DB900BF002004F023B900BF014808F061
:104AC0000BBF00BF88120024014807F09FBA00BF47
:104AD00064210024014807F0D7B800BFFC2000245F
:104AE000014808F0BBBC00BF5420002401207047DF
:104AF00008B51EF0E5FF162203464FF0FF301A609E
:104B000008BD00BF08B51EF0DBFF16230360FEE7FB
:104B100070B5161E07DD0C468D19AFF3008004F842
:104B2000010BA542F9D1304670BD00BF70B5161E0D
:104B300007DD0C468D1914F8010BAFF30080AC4271
:104B4000F9D1304670BD00BF4FF0FF30704700BF55
:104B50004FF4005300204B60704700BF01207047A6
:104B60000020704793490022934B9448F0B4D1F849
:104B7000884082B0924D44F47004C1F888400C69BA
:104B800044F004040C614FF0B044196841F0010195
:104B900019601A611968084018609A61DA611A622E
:104BA0009A62DA621A635A639A63DA631A645A641D
:104BB000196821F4802119601A66D4F8E420814B29
:104BC00042F48042C4F8E4202A681340B3F1005F45
:104BD00003D27D4B0122C3F808210023764D7B4987
:104BE0004FF0CC360093D5F8E000794A40F4FC70E1
:104BF000784C794FC5F8E000D5F8E000DFF83CC20A
:104C000000F010000090CC2008627448486274489C
:104C100008607448886074484B60C8607349744881
:104C2000116274495662116073499160734953600F
:104C3000D16002F580522762C4F824C0DFF800C2B8
:104C40006F49C4F800C0DFF8FCC1C4F808C0DFF841
:104C5000F8C16360C4F80CC06A4C07624462A4F5F2
:104C60008234A4F5B174046004F5822404F255542E
:104C70008460654C4360C46040F265146348086218
:104C800063484E6208606348886063484B60C86050
:104C90004FF44C616148166251621060604961488E
:104CA00091605360D0604FF4C052D5F8D4305E4963
:104CB00043F480535D48C5F8D43009230A645C4A44
:104CC0004C648864CA640B658B6D13F0200361D05B
:104CD0004FF6FF7201E0013A54D08B6D13F02003C0
:104CE000F9D10193019BB3F57A7F5DD20023019A3C
:104CF00001320192019AB2F57A7FF8D34A4A0A2129
:104D00001165002B52D04FF6FF73474901E0013B7C
:104D10001ED08A6D9006FAD4EB230B65424B454AB0
:104D20001A65414B40F6064243495C6D21482243D7
:104D30004FF000645A655A6C22F400725A640B6892
:104D400043F000430B60009B846002B0F0BC7047EE
:104D5000EB224FF6FF7334480A6501E0013B05D0B2
:104D6000826D9106FAD4334B0365DAE7314A4FF688
:104D7000FF732D49026501E0013BD2D08A6D920696
:104D8000CFD5F9E70192019AB2F57A7FAFD30A2322
:104D90000B65B8E70193019BB3F57A7FA6D30A228E
:104DA000EB230A650B65B9E70A230B651E4BEB2263
:104DB0001A65B3E700ED00E0004402587FEDF6EA23
:104DC0000010005C0000FFFF00800051000C025842
:104DD0000010025800140258CCCCCC00CC0C00CCF3
:104DE000FAFFEAAF0F003FF005001550CC0000C0FD
:104DF00000180258FABFAAAA0FC0FFFF0540555578
:104E0000001C02580C0000C0550501400000C0CC39
:104E1000FFABAAAA00FCFFFF00545555AAAAEBFF5E
:104E2000FFFF3C0055551400004100520050100097
:104E3000510301010C4004000040005200C0CCCCE2
:104E4000AAFABFAAFF0FC0FF5505405530B44FF472
:104E500000524FF000654FF4804403464FF48071D8
:104E6000C0E900524FF40022C0E9024100201A615B
:104E700030BC70470000000010B54FF4407494B08F
:104E8000052100220C944FF040740223069110215A
:104E90000F9440F201140B93039341F28833139261
:104EA0000092029106A901949FED097BCDE90D22A4
:104EB000CDE911226A468DED047B09F0A1F80028A6
:104EC00014BF6FF00400002014B010BDAFF30080D9
:104ED000000000000000400030B5002395B0032919
:104EE0000C460D9341F288320B9306A913930546A5
:104EF000CDE90E33CDE911330CBF4FF440734FF4BD
:104F000080730C930623069308F0FEFE20BB40F24C
:104F100002230222032C284603924FF0000214BF02
:104F20004FF080754FF04075102406A90F9502943C
:104F3000CDE900334FF48003CDE90423052241F28B
:104F4000883306926A4609F05BF8002814BF6FF0B8
:104F50000400002015B030BD6FF00100FAE700BF7B
:104F600003294FF0000330B508BF4FF44072A3B0DF
:104F700018BF4FF4807205460D930C92B7220E9322
:104F80000F930B9311930692CDE91233FFF7A4FF11
:104F900060BB044641F2883206A9284608F0B4FEF8
:104FA00020BB4FF4407105220223284614924FF093
:104FB00040721993039341F2883321940094CDE910
:104FC0001A1410219FED0C7B029140F20111CDE9E2
:104FD0001C4201916A4614A9CDE91F448DED047B62
:104FE00009F00EF810B9204623B030BD6FF001046F
:104FF000F9E700BFAFF300800000000000004000B0
:1050000010B535218EB000234FF48074009141F229
:105010008832694605930D93CDE90643CDE90833FF
:10502000CDE90B3308F070FE002814BF6FF00100CB
:1050300000200EB010BD00BF10B5F5218EB00023CA
:105040004FF48074009141F28832694605930D93C4
:10505000CDE90643CDE90833CDE90B3308F054FE22
:10506000002814BF6FF0010000200EB010BD00BF7B
:1050700010B590B003290CD8DFE801F03C320228CB
:105080009FED217BEE224FF0407302920B938DED4A
:10509000087B4FF44051082200234FF00044059153
:1050A0004FF0804107926A460E9102A90A930D942F
:1050B0000F939FED177B8DED007B09F019F8002809
:1050C00014BF6FF00500002010B010BD9FED127BE3
:1050D000ED224FF0407302920B938DED087BD8E7E1
:1050E0009FED0F7B3D224FF0007302920B938DEDED
:1050F000087BCEE79FED0A7B0E224FF08073029271
:105100000B938DED087BC4E700010000000C00004C
:10511000000000000000000000030000000C000080
:10512000000100000004000000B591B003290CD874
:10513000DFE801F0392F02259FED217BEC224FF0B3
:10514000407302920B938DED087B9FED1F7B08212E
:105150004FF4405200230791694405926A460A932E
:105160000F93CDE90D338DED007B08F0C1FF0028D2
:1051700014BF6FF00500002011B05DF804FB9FED37
:10518000147BEB224FF0407302920B938DED087B62
:10519000DBE79FED117BBC224FF0007302920B9373
:1051A0008DED087BD1E79FED0E7B0C224FF08073D5
:1051B00002920B938DED087BC7E700BFAFF3008031
:1051C00000010000000C00000000000000000000D2
:1051D00000030000000C00000001000000080000B7
:1051E000000100000004000010B503298EB04FF04C
:1051F00066044FF0000341F288326946009414BF00
:105200004FF480744FF4407407930D93CDE9083345
:10521000CDE90534CDE90B3308F076FD002814BF45
:105220006FF0010000200EB010BD00BF10B50329C3
:105230008EB04FF099044FF0000341F28832694676
:10524000009414BF4FF480744FF4407407930D938F
:10525000CDE90833CDE90534CDE90B3308F054FD31
:10526000002814BF6FF0010000200EB010BD00BF79
:105270004FF0FF30704700BF024B00209B680B606F
:10528000704700BFF8130024024B00201B680B601E
:10529000704700BFF8130024054B00201B688342B1
:1052A0000CBF4FF4F0734FF448730B60704700BFAE
:1052B000F8130024054B00201B6883420CBF4FF4F9
:1052C00048734FF4F0730B60704700BFF81300246D
:1052D0004FF0FF30704700BF4FF0FF30704700BF06
:1052E0004FF0FF30704700BF4FF0FF30704700BFF6
:1052F0004FF0FF30704700BF4FF0FF30704700BFE6
:1053000010B484680088A4465DF8044B604700BF71
:1053100010B444680088A4465DF8044B604700BFA1
:105320002DE9F84300F110050523064690460F4687
:105330009E4AF021284600F055FA044603239C4A71
:10534000B021284600F04EFA04440323994AB621BE
:10535000284600F047FA04440323974AB12128461F
:1053600000F040FA04440323944AB721284600F091
:1053700039FA04440323924AB221284600F032FA53
:10538000044403238F4AB821284600F02BFA044432
:1053900001238D4ABF21284600F024FA0444032348
:1053A0008A4AB321284600F01DFA04440323884AA0
:1053B000B921284600F016FA04440323854AB52192
:1053C000284600F00FFA04440323834ABA212846F2
:1053D00000F008FA04440323804ABC21284600F068
:1053E00001FA044403237E4ABD21284600F0FAF95D
:1053F000044402237B4ABE21284600F0F3F904440A
:105400000523794AF021284600F0ECF904440223F0
:10541000764AB121284600F0E5F904440123744A94
:10542000B621284600F0DEF904440123714AB52173
:10543000284600F0D7F9044402236F4AB7212846D2
:1054400000F0D0F9044404236C4AB821284600F047
:10545000C9F9044403236A4ABC21284600F0C2F972
:1054600004440323674ACC21284600F0BBF90123FA
:105470000444654ABA21284600F0B4F9F3680444AC
:1054800098478146F3689847A0EB0900C728F9D9E7
:10549000B8F1000F63D143465C4A3621284600F03C
:1054A000A1F9044404235A4A2A21284600F09AF913
:1054B00004440423574A2B21284600F093F904445E
:1054C0000023554A1121284600F08CF9F368044462
:1054D00098478046F3689847A0EB08001328F9D94D
:1054E000002F52D0022F4FF0000356D14B4A3A21E1
:1054F000284600F077F90444494A00235121284600
:105500005760484A00F06EF904440023464A53218C
:10551000284600F067F904440023444A55212846F0
:1055200000F060F904440023414A5E21284600F05F
:1055300059F900233F4A04442921284600F052F932
:10554000014600233C4A0C4428462C2100F04AF92D
:10555000C44214BF4FF0FF300020BDE8F8830023A1
:10556000364A3621284600F03DF904440423344AE3
:105570002A21284600F036F904440423314A2B211D
:10558000284600F02FF904449AE73B462E4A3A2178
:10559000284600F027F90444AEE72B4A3A21284672
:1055A000002700F01FF90444A6E700BF94B80C08D8
:1055B00090B80C088CB80C0888B80C0884B80C0893
:1055C00080B80C087CB80C0878B80C0874B80C08C3
:1055D00070B80C086CB80C0868B80C0864B80C08F3
:1055E00060B80C085CB80C0854B80C0850B80C082B
:1055F0004CB80C0848B80C0844B80C0840B80C0863
:105600003CB80C0838B80C0834B80C08C1B80C0801
:10561000B8B80C08B0B80C0831B80C082DB80C0894
:10562000F813002425B80C0821B80C081DB80C0884
:1056300019B80C0815B80C0811B80C08ADB80C084E
:10564000A4B80C089CB80C0829B80C0830B5C1EBFC
:10565000012C0C4D83B00C46A5FB0C5C00230DF116
:10566000070210304FEA5C1C51218DF807C000F092
:10567000B9F818B9044B9C6003B030BD4FF0FF304F
:10568000FAE700BF1F85EB51F813002400B583B083
:105690000023292110300DF107028DF8073000F0AA
:1056A000A1F8003818BF0120404203B05DF804FBA8
:1056B00000B583B00023282110300DF107028DF8CA
:1056C000073000F08FF8003818BF0120404203B0C7
:1056D0005DF804FB70B5602282B0002301298DF8CB
:1056E00006208DF8073039D800F110061ED00DF1D4
:1056F0000702362130461D4600F074F80423194A8B
:1057000004462A21304600F06DF802460423304654
:1057100014442B21144A00F065F820440038134B40
:1057200018BF01201D60404202B070BD0DF106029D
:105730000D4630460B2100F055F804230C4A044670
:105740002A21304600F04EF8024604233046144425
:105750002B21084A00F046F82044DFE74FF0FF30E5
:10576000E2E700BFB8B80C08B0B80C08F813002482
:10577000A4B80C089CB80C080A461030DB2108B508
:10578000012300F027F8003818BF0120404208BD6F
:105790004FF0FF30704700BF4FF0FF30704700BF41
:1057A00080B1034610B4D1E90124C8685A600749A2
:1057B000074A9B61C3E90240C3E9042100205DF868
:1057C000044B70474FF0FF30704700BF0153010892
:1057D0001153010810B4D0E90140A4465DF8044B10
:1057E000604700BF10B404688068A4465DF8044BAD
:1057F000604700BF4FF0FF30704700BF024B0020F2
:105800009B680B60704700BF04140024024B00200B
:105810001B680B60704700BF04140024054B002078
:105820001B6883420CBF4FF4F0734FF448730B6056
:10583000704700BF04140024054B00201B688342FE
